:100000000C9471010C94A2010C94A2010C94A20115
:100010000C94A2010C94A2010C94A2010C94A201D4
:100020000C94A2010C94A5080C94A5080C94A508A6
:100030000C94A2010C941D0A0C94A2010C94A20130
:100040000C94A2010C94760C0C94A2010C94A201C5
:100050000C94A2010C94A2010C94A2010C94D3095B
:100060000C94A2010C948C0B0C94620B0C94A201C6
:100070000C94A2010C94A2010C94A2010C94A20174
:100080000C94A2010C94A2010C94A2010C94A20164
:100090000C94A2010C94A2010C94A2010C94AF0840
:1000A0000C94A2010C94A2010C94A2010C94A20144
:1000B0000C94A2010C94A2010C94A2010C94B60B16
:1000C0000C94A2010C94A2010C94A2010C94380B84
:1000D0000C940E0B0C94A2010C94E40A0C94BA0A32
:1000E0000C94A2010C949A020C94D9050C945C0512
:1000F0000C947B020C94C8070C94B6020C943B073A
:100100000C945E070C9496020C947F050C949E024E
:100110000C94A8020C94F7010C9421070C948D0503
:100120000C947F020C947C070C94AC020C94DD01BF
:100130000C94B0070C9417070C946B050C94CB012E
:100140000C94B1020C9426060C94AF070C94B202E6
:100150000C9490070C94CD010C9429070C94CE01BB
:100160000C9486020C94ED060C94CC010C9472074E
:100170000C9486070C9477020C9445070C94E412B7
:100180000C948C020C941E0D0C94F0010C9424021F
:100190000C940D070C9471020C94FE060C9403074A
:1001A0000C94A4020C9490020C9483020C941605F7
:1001B0000C9468070C9431070C944F07020000213F
:1001C00000240027002A002D003000330001010028
:1001D00000040107010A0100002200250028002B6D
:1001E000002E003100340002010000050108010B5F
:1001F00001000020002300260029002C002F0032DF
:1002000000000100000301060109010505050507BD
:100210000508080808020202020A0A080804040481
:1002200004010101010101010103030303030303AD
:1002300003040707070C0C0C0C0C0C0C0C0202023C
:100240000206060606060606060B0B0B0B0B0B0B2F
:100250000B010210202008081020401020408002CE
:1002600001020108040201010204081020408080FC
:100270004020100804020180040201804020100880
:100280000402010804020101020408102040800158
:100290000204081020408000000A0B02090C0D0E19
:1002A0000807030401000000000000000000000037
:1002B000000000000000000000000000000000003E
:1002C00000000012111000000000000000000000FB
:1002D00000000000000000000000000000001E0DF3
:1002E000E41211241FBECFEFD1E2DEBFCDBF00E08C
:1002F0000CBF12E0A0E0B2E0E0E2FDE200E00BBFE4
:1003000002C007900D92A036B107D9F727E0A0E60A
:10031000B2E001C01D92A734B207E1F711E0C0E7D7
:10032000D1E000E006C021970109802FFE010E9464
:100330001114CF36D10780E00807A9F70E94070FF4
:100340000C947E160C9400002091DB02260F3327BC
:10035000331F21323105ECF420912803FC0190E099
:1003600080E0243069F082E00895A091DB022191C1
:10037000AC0147545D4FA40FB52FB11D2C930196CE
:10038000861798F38091DB02680F6093DB0280E0B0
:10039000089581E00895089508950895E091B702C1
:1003A0008091B602E81730F4F0E0EA56FD4F808104
:1003B00090E008958FEF9FEF08959091B70280919C
:1003C000B6022FEF3FEF981748F4E92FF0E0EA5616
:1003D000FD4F208130E09F5F9093B702C9010895DF
:1003E0008091B6029091B702891B990B0895CF9224
:1003F000DF92EF92FF920F931F93CF93DF937C01D5
:10040000CB018A0120912E03222389F0EB016B019D
:10041000C40ED51ECC15DD0569F06991D701ED91AB
:10042000FC910190F081E02DC7011995F3CF642F65
:100430000E94A401C801DF91CF911F910F91FF90FD
:10044000EF90DF90CF900895CF93DF931F92CDB7B9
:10045000DEB7698320912E032223F9F02091510306
:10046000203258F021E030E0FC013383228390E019
:1004700080E00F90DF91CF91089580912F03E82FB6
:10048000F0E0E05DFC4F998190838F5F80932F03B4
:100490008093510381E090E0ECCF61E0CE010196C2
:1004A0000E94A401F7CF8150823108F05AC0E82F92
:1004B000F0E08827E15AFD4F8F4F0C9411147F0212
:1004C0008302710277027B02B10286028C029002E3
:1004D00096029A029E02A402A802B102AC02B202E3
:1004E000B602809180008F7780938000089580917C
:1004F00080008F7DF9CF80918000877FF5CF84B514
:100500008F7784BD089584B58F7DFBCF8091B00037
:100510008F778093B00008958091B0008F7DF9CFE0
:10052000809190008F778093900008958091900043
:100530008F7DF9CF80919000877FF5CF8091A000CB
:100540008F778093A00008958091A0008F7DF9CFD0
:100550008091A000877FF5CF809120018F778093D5
:1005600020010895809120018F7DF9CF8091200195
:10057000877FF5CFCF93DF93282F30E0F901E9563D
:10058000FD4F8491F901EF5AFD4FD491F901E55FD8
:10059000FD4FC491CC23A1F081110E945302EC2F96
:1005A000F0E0EE0FFF1FEF50FE4FA591B491EC91DC
:1005B000ED2381E090E009F480E0DF91CF91089590
:1005C00080E090E0FACF1F93CF93DF93282F30E0A5
:1005D000F901E956FD4F8491F901EF5AFD4FD4918D
:1005E000F901E55FFD4FC491CC23A9F0162F8111CD
:1005F0000E945302EC2FF0E0EE0FFF1FE952FE4F76
:10060000A591B4918FB7F894EC91111108C0D095D1
:10061000DE23DC938FBFDF91CF911F910895DE2BF6
:10062000F8CF1092280381E08093270310920203F1
:1006300061E084E10E94E30261E085E10E94E3025F
:10064000E9EBF0E080818E7F808380818D7F8083E5
:1006500088E48093B80085E48093BC000895CF932C
:10066000DF9391E09093B8028823B9F0C091B8006D
:10067000D091BA008091BC008A7B8093BC0060E07E
:1006800084E10E94E30260E085E10E94E3020E94AF
:100690001103D093BA00C093B800DF91CF910895B1
:1006A000CF93DF9390E0FC01EF5AFD4F2491855FDB
:1006B0009D4FFC0184918823D1F090E0880F991F11
:1006C000FC01E354FE4FA591B491FC01E952FE4FA9
:1006D000C591D49161110EC09FB7F8948C91E22F0F
:1006E000E0958E238C932881E223E8839FBFDF91DE
:1006F000CF9108958FB7F894EC91E22BEC938FBFD4
:10070000F6CF3FB7F8948091920290919302A09116
:100710009402B091950226B5A89B05C02F3F19F011
:100720000196A11DB11D3FBFBA2FA92F982F882771
:10073000BC01CD01620F711D811D911D42E0660F4C
:10074000771F881F991F4A95D1F70895CF92DF929E
:10075000EF92FF920F931F93CF93DF93D0915103AA
:1007600081E0D13208F09CC0C09150030E94810307
:100770006B017C018091280381116CC082E0809321
:10078000280381E0809327038FEF80932603109244
:100790002503D0932403A0E3B3E0E4E0F3E080E09A
:1007A000D8138DC01092030380910303CC0FC82B84
:1007B000C093030380910203813009F084C010923A
:1007C00002030E9481036B017C01809103038093EB
:1007D000BB0080912A0390912B03A0912C03B09130
:1007E0002D03892B8A2B8B2BA1F00E948103009172
:1007F0002A0310912B0320912C0330912D036C19A7
:100800007D098E099F09061717072807390708F47D
:1008100042C08091BC0083FDD8CF85EC8093BC00A2
:100820000E9481036B017C0180912803823009F4CE
:100830004CC0809126038F3F09F469C08091260344
:10084000803209F466C080912603803309F463C0C6
:1008500084E026C080912A0390912B03A0912C0361
:10086000B0912D03892B8A2B8B2B09F483CF0E9407
:10087000810300912A0310912B0320912C033091C6
:100880002D036C197D098E099F0906171707280784
:10089000390708F06FCF809129030E942F0385E06C
:1008A00010922F031092510310922E03DF91CF91DB
:1008B0001F910F91FF90EF90DF90CF9008959D9141
:1008C00091938F5F6DCF85EEA9CF80912A03909190
:1008D0002B03A0912C03B0912D03892B8A2B8B2BFA
:1008E00009F4A2CF0E94810300912A0310912B03E7
:1008F00020912C0330912D036C197D098E099F09DD
:10090000061717072807390708F08ECFC4CF80E0F5
:10091000C7CF82E0C5CF83E0C3CF0F931F93CF93A0
:10092000DF93162F072FCCE0D7E0AA85BB859C85E7
:1009300021E020932E039093500310922F031092E6
:100940005103ED91FC9111970190F081E02D682FFA
:10095000CD0119958A859B85DC01ED91FC91019073
:10096000F081E02D602F19958A859B85DC01ED9142
:10097000FC910190F081E02D612F1995DF91CF91CD
:100980001F910F910C94A6038F929F92AF92BF92EA
:10099000CF92DF92EF92FF924B015C010E948103A4
:1009A0006B017C010E9481036C197D098E099F09EE
:1009B000683E734081059105A8F321E0821A9108F1
:1009C000A108B10888EEC80E83E0D81EE11CF11C16
:1009D00081149104A104B10429F7FF90EF90DF90F6
:1009E000CF90BF90AF909F908F900895CF93DF935B
:1009F000CCE0D7E061E089810E94E30264E670E028
:100A000080E090E00E94C40460E089810E94E302DB
:100A100064E670E080E090E00E94C40460E971E068
:100A200080E090E0DF91CF910C94C404AF92BF922C
:100A3000CF92DF92EF92FF920F931F93CF93DF93AA
:100A40006C017B018B01040F151FEB015E01AE18D9
:100A5000BF08C017D10759F06991D601ED91FC91FB
:100A60000190F081E02DC6011995892B79F7C50118
:100A7000DF91CF911F910F91FF90EF90DF90CF907A
:100A8000BF90AF900895FC01A089B1898C91A6898F
:100A9000B78982FD0FC09C91818D8F5F8F73228DEE
:100AA000821749F0A18DAE0FBF2FB11D5D969C93AB
:100AB000818F08958C910895FC01538D448D252FCD
:100AC00030E0842F90E0821B930B541710F0CF96E8
:100AD000089501970895FC01918D828D981761F01A
:100AE000A28DAE0FBF2FB11D5D968C91928D9F5F31
:100AF0009F73928F90E008958FEF9FEF0895FC0110
:100B0000918D828D981731F0828DE80FF11D858DC2
:100B100090E008958FEF9FEF0895FC01918D228D55
:100B2000892F90E0805C9F4F821B91098F739927DA
:100B300008958EE593E00E948D0521E0892B09F44C
:100B400020E0822F08958BEF93E00E948D0521E035
:100B5000892B09F420E0822F089588E994E00E940F
:100B60008D0521E0892B09F420E0822F0895FC01F6
:100B7000A48DA80FB92FB11DA35ABF4F2C91848DFE
:100B800090E001968F739927848FA689B7892C935B
:100B9000A089B1898C91837080648C93938D848DAE
:100BA000981306C00288F389E02D80818F7D8083B1
:100BB0000895EF92FF920F931F93CF93DF93EC0171
:100BC00081E0888F9B8D8C8D98131AC0E889F989F4
:100BD000808185FF15C09FB7F894EE89FF896083F7
:100BE000E889F98980818370806480839FBF81E078
:100BF00090E0DF91CF911F910F91FF90EF900895BA
:100C0000F62E0B8D10E00F5F1F4F0F731127E02E94
:100C10008C8D8E110CC00FB607FCFACFE889F989CC
:100C2000808185FFF5CFCE010E94B705F1CFEB8D16
:100C3000EC0FFD2FF11DE35AFF4FF0829FB7F894A0
:100C40000B8FEA89FB8980818062CFCFCF93DF93BE
:100C5000EC01888D8823B9F0AA89BB89E889F989D4
:100C60008C9185FD03C0808186FD0DC00FB607FC09
:100C7000F7CF8C9185FFF2CF808185FFEDCFCE013C
:100C80000E94B705E9CFDF91CF910895F0E0E0E051
:100C9000199480E090E0892B29F00E94AD05811124
:100CA0000E94000080E090E0892B49F080E090E015
:100CB000892B29F00E94000081110E9400000E94EF
:100CC000A30581110E94460680E090E0892B29F05F
:100CD0000E94990581110C94000008958F929F92B3
:100CE000AF92BF92CF92DF92EF92FF920F931F933A
:100CF000CF93DF93EC016A017B0120E030E04FE706
:100D000053E4CB01B6010E9411134B015C0120E0BA
:100D100030E0A9010E94631418168CF5C501B401D6
:100D20000E942D148B01B98020E030E0A901C70199
:100D3000B6010E94631460E018160CF061E08B2D80
:100D40000E94E3020F3F110509F0ECF41127C8815E
:100D500061E08C2F0E94500301151105B9F460E089
:100D60008C2FDF91CF911F910F91FF90EF90DF902B
:100D7000CF90BF90AF909F908F900C94E302C501ED
:100D8000B4019058CDCF0FEF10E0E1CF0F3F110528
:100D900011F461E0E5CFEC2FF0E0E956FD4FE4916E
:100DA000E150E23108F0BCC0F0E08827E552F94F8D
:100DB0008F4F0C941114ED06FE0603070D0717075D
:100DC00090072107290731073B0745074F075E07B3
:100DD0006807900772077C07860784B5806884BD22
:100DE00007BDDF91CF911F910F91FF90EF90DF90A2
:100DF000CF90BF90AF909F908F90089584B5806200
:100E000084BD08BDEECF8091800080688093800013
:100E10001093890000938800E4CF80918000806265
:100E20008093800010938B0000938A00DACF80912A
:100E3000800088608093800010938D0000938C0068
:100E4000D0CF8091B00080688093B0000093B30051
:100E5000C8CF8091B00080628093B0000093B4004E
:100E6000C0CF80919000806880939000109399008B
:100E700000939800B6CF809190008062809390009C
:100E800010939B0000939A00ACCF809190008860F3
:100E90008093900010939D0000939C00A2CF8091BE
:100EA000A00080688093A0008091A0008F7B809339
:100EB000A0001093A9000093A80093CF8091A000F8
:100EC00080628093A0001093AB000093AA0089CFAA
:100ED0008091A00088608093A0001093AD000093E3
:100EE000AC007FCF80912001806880932001109317
:100EF00029010093280175CF8091200180628093A1
:100F0000200110932B0100932A016BCF80912001C7
:100F100088608093200110932D0100932C0161CFF4
:100F2000003811050CF035CF1ACF8EBD00000DB47E
:100F300007FEFDCF8EB50895FC01248131E030938A
:100F40002E032093500310922F0310925103848597
:100F5000682B82E593E00E9424020C94A603089576
:100F600090E080E008950F931F93CF938C01C62FDC
:100F700064600E949C076C2F6B7FC8010E949C07D5
:100F800083EC90E00197F1F7CF911F910F910895B5
:100F90000F931F93CF93DF938C01C62FD62FD07F53
:100FA000D1606D2F0E949C076D2FC8010E94B3076E
:100FB00080E1C89FE0011124C1606C2FC8010E942C
:100FC0009C076C2FC8010E94B30781E090E0DF917D
:100FD000CF911F910F91089540E050E060E070E8DC
:100FE00087E297E00E946E0640E050E0BA0185E299
:100FF00097E00C946E06FC0101900020E9F7319710
:10100000AF01481B590BBC0188E994E00C9416050C
:101010008F929F92AF92BF920F931F93CF93DF93C4
:10102000CDB7DEB7A1970FB6F894DEBF0FBECDBF28
:1010300019A2423008F44AE08E010F5D1F4F842E42
:10104000912CB12CA12CA50194010E94CF13E62F65
:10105000B901CA01EA30F4F4E05DD801EE938D01E4
:10106000232B242B252B79F790E080E0109719F0A3
:10107000CD010E94FB07A1960FB6F894DEBF0FBE0C
:10108000CDBFDF91CF911F910F91BF90AF909F90F7
:101090008F900895E95CE1CFCF92DF92EF92FF92BB
:1010A000CF93DF936B017C016DE288E994E00E94AD
:1010B000D905EC0166277727CB016C197D098E09CC
:1010C0009F094AE00E9408088C0F9D1FDF91CF9175
:1010D000FF90EF90DF90CF90089585ED8093BC0056
:1010E00080912A0390912B03A0912C03B0912D03A2
:1010F0000796A11DB11D23E0B695A79597958795F5
:101100002A95D1F72091BC0024FD03C0109228033A
:10111000089540912A0350912B0360912C03709104
:101120002D03452B462B472B69F30097A105B105ED
:1011300041F02AE22A95F1F700C00197A109B1090F
:10114000E1CF809129030C942F031F920F920FB6C9
:101150000F9211240F900FBE0F901F9018951F92A1
:101160000F920FB60F9211240BB60F922F933F934D
:101170004F935F936F937F938F939F93AF93BF939F
:10118000EF93FF938091B900887F803609F44DC0BA
:1011900008F040C0883209F4A9C028F5803109F46C
:1011A0009DC0C8F4882309F4FBC0883009F496C0B8
:1011B000FF91EF91BF91AF919F918F917F916F912F
:1011C0005F914F913F912F910F900BBE0F900FBEEB
:1011D0000F901F901895883109F488C0803241F72C
:1011E0008093260314C0803409F49DC040F48033FA
:1011F000B9F38833E9F68093260385ECB0C08035D7
:1012000009F485C0883509F496C0883489F60E94AF
:101210006D08CECF883909F48CC038F5883729F0AD
:1012200050F4883611F0803719F683E08093280354
:101230001092FF0257C0883809F47BC0803919F03A
:10124000803809F0B5CF8091FF02803208F071C07C
:10125000E091FF0281E08E0F8093FF028091BB003E
:10126000F0E0E152FD4F80833DC0803B39F0E0F477
:10127000803A09F479C0883A09F09ACF84E08093E3
:1012800028031092DC021092DB02E091D902F09167
:10129000DA0219958091DB0281110FC081E0809301
:1012A000DB021092B90209C0803C09F4A6CF883C49
:1012B00009F4A3CF883B09F07BCFE091DC0281E009
:1012C0008E0F8093DC02F0E0E754FD4F8081809325
:1012D000BB009091DC028091DB0229C08091030366
:1012E0008093BB0085EC8093BC0062CF9091250376
:1012F00080912403981758F5E091250381E08E0F23
:1013000080932503F0E0EC5FFC4F8081E9CFE09112
:10131000250381E08E0F809325038091BB00F0E0D0
:10132000EC5FFC4F808390912503809124039817F4
:10133000C8F285E8D8CFE091250381E08E0F809335
:1013400025038091BB00F0E0EC5FFC4F808380912F
:10135000270381115CCF81E08093020384EA8093AC
:10136000BC001092280324CF85EC8093BC0010921F
:1013700028038091FF02803230F4E091FF02F0E018
:10138000E152FD4F10826091FF0270E0E091DD02BA
:10139000F091DE028FED92E019951092FF0208CFD6
:1013A0001092260334CF1F920F920FB60F92112482
:1013B0002F933F938F939F93AF93BF9380918E0210
:1013C00090918F02A0919002B091910230918D0284
:1013D00023E0230F2D3758F50196A11DB11D209351
:1013E0008D0280938E0290938F02A0939002B0930F
:1013F00091028091920290919302A0919402B091F7
:1014000095020196A11DB11D8093920290939302C3
:10141000A0939402B0939502BF91AF919F918F9149
:101420003F912F910F900FBE0F901F90189526E8B7
:10143000230F0296A11DB11DD2CF1F920F920FB69E
:101440000F9211240BB60F922F933F934F935F93FC
:101450006F937F938F939F93AF93BF93EF93FF937C
:1014600080917B0290917C02A0917D02B0917E02DE
:10147000892B8A2B8B2BD1F190917A0280910000DD
:1014800089278093000080917B0290917C02A0913B
:101490007D02B0917E02181619061A061B069CF4EE
:1014A00080917B0290917C02A0917D02B0917E029E
:1014B0000197A109B10980937B0290937C02A093CC
:1014C0007D02B0937E02FF91EF91BF91AF919F910A
:1014D0008F917F916F915F914F913F912F910F90DD
:1014E0000BBE0F900FBE0F901F90189580910002B9
:1014F000ECEBF1E0E4919FEF90930002E230E9F031
:1015000040F4EE2389F0E13091F060E00E94E302C4
:10151000DACFE43049F110F1E530B9F7909173007A
:101520009D7F90937300F1CF10926E00EECF90915B
:101530006F009D7F90936F00E8CF909170009D7F2A
:101540009093700091E09093B0009091B100987FDB
:1015500094609093B1001092B300D7CF9091710036
:101560009D7F90937100D1CF909172009D7F909359
:101570007200CBCF1F920F920FB60F9211240BB6B1
:101580000F922F933F934F935F936F937F938F931C
:101590009F93AF93BF93EF93FF938EE593E00E94E9
:1015A000B705FF91EF91BF91AF919F918F917F917F
:1015B0006F915F914F913F912F910F900BBE0F90C4
:1015C0000FBE0F901F9018951F920F920FB60F929B
:1015D00011240BB60F922F933F934F935F936F930A
:1015E0007F938F939F93AF93BF93EF93FF938EE57A
:1015F00093E00E944305FF91EF91BF91AF919F91BE
:101600008F917F916F915F914F913F912F910F90AB
:101610000BBE0F900FBE0F901F9018951F920F9248
:101620000FB60F9211240BB60F922F933F934F9347
:101630005F936F937F938F939F93AF93BF93EF933A
:10164000FF938BEF93E00E94B705FF91EF91BF915D
:10165000AF919F918F917F916F915F914F913F914A
:101660002F910F900BBE0F900FBE0F901F901895EB
:101670001F920F920FB60F9211240BB60F922F9359
:101680003F934F935F936F937F938F939F93AF930A
:10169000BF93EF93FF938BEF93E00E944305FF917D
:1016A000EF91BF91AF919F918F917F916F915F91DA
:1016B0004F913F912F910F900BBE0F900FBE0F9047
:1016C0001F9018951F920F920FB60F9211240BB610
:1016D0000F922F933F934F935F936F937F938F93CB
:1016E0009F93AF93BF93EF93FF9388E994E00E9499
:1016F000B705FF91EF91BF91AF919F918F917F912E
:101700006F915F914F913F912F910F900BBE0F9072
:101710000FBE0F901F9018951F920F920FB60F9249
:1017200011240BB60F922F933F934F935F936F93B8
:101730007F938F939F93AF93BF93EF93FF9388E92A
:1017400094E00E944305FF91EF91BF91AF919F916B
:101750008F917F916F915F914F913F912F910F905A
:101760000BBE0F900FBE0F901F9018951F920F92F7
:101770000FB60F9211240BB60F922F933F934F93F6
:101780005F936F937F938F939F93AF93BF93EF93E9
:10179000FF93809136050E94BA0220913A0530915C
:1017A0003B052F5F3F4F30933B0520933A059091C7
:1017B0003905953618F096E09093350590913505EA
:1017C000943009F466C0B8F49230F1F0933009F423
:1017D00044C090913805992309F46BC081117CC0F5
:1017E00080913705882309F463C08091370561E053
:1017F0000E94E3025EC0953009F457C0963049F765
:1018000091E0909306064FC08111E3CF20913A05F5
:1018100030913B052436310528F410923B05109297
:101820003A05D7CF1092060610923905E091390596
:1018300091E09E0F90933905F0E020913A053091A8
:101840003B05EE0FFF1FEB5CFA4F308727831092AA
:101850003B0510923A0593E019C0813009F0B9CFE9
:10186000E091390591E09E0F90933905F0E02091C9
:101870003A0530913B05EE0FFF1FEB5CFA4F3087C6
:10188000278310923B0510923A0594E0909335051A
:10189000A0CF882359F220913A0530913B05253697
:1018A000310508F496CF95E0F1CF811192CFB5CFF5
:1018B0002F9AFF91EF91BF91AF919F918F917F915F
:1018C0006F915F914F913F912F910F900BBE0F90B1
:1018D0000FBE0F901F90189580913705882321F037
:1018E0008091370560E084CF2F98E3CF1F920F924D
:1018F0000FB60F9211240BB60F922F933F934F9375
:101900005F936F937F938F939F93AF93BF93CF9387
:10191000DF93EF93FF9380917902C0914306D0E06B
:1019200087FF23C010928500109284008091790275
:101930008F5F8093790280917902082E000C990BB9
:101940008C179D0724F4809179028C3074F180917A
:1019500084009091850084349C4908F465C080918E
:10196000840090918500049661C080917902082ED0
:10197000000C990B8C179D07CCF63091790225E06D
:101980003203F0011124E95FF94F808186FFCECF49
:10199000309179023203F0011124E95FF94F80811F
:1019A00060E08F730E94E302C1CF80918400909128
:1019B00085003091790225E03203F0011124E95FBE
:1019C000F94F41815281840F951F90938900809334
:1019D0008800309179023203F0011124E95FF94F58
:1019E000808186FF0CC0309179023203F00111240E
:1019F000E95FF94F808161E08F730E94E302FF91FC
:101A0000EF91DF91CF91BF91AF919F918F917F9196
:101A10006F915F914F913F912F910F900BBE0F905F
:101A20000FBE0F901F90189580E49CE99093890059
:101A3000809388008FEF80937902E1CF1092550355
:101A40001092540388EE93E0A0E0B0E08093560338
:101A500090935703A0935803B093590325E132E0C4
:101A6000309353032093520310926103109260034A
:101A70008093620390936303A0936403B093650320
:101A800027E232E030935F0320935E0345E351E0A9
:101A900050936B0340936A0344E351E050936D030A
:101AA00040936C0340E351E050936F0340936E0307
:101AB00041E351E0509371034093700342E351E0DE
:101AC000509373034093720346E351E050937503C0
:101AD0004093740310927703109278031092790365
:101AE00010927A031092FE031092FD038093FF037D
:101AF00090930004A0930104B09302043093FC037C
:101B00002093FB0345ED50E05093080440930704F5
:101B100044ED50E050930A044093090440ED50E036
:101B200050930C0440930B0441ED50E050930E048D
:101B300040930D0442ED50E05093100440930F0485
:101B400046ED50E050931204409311041092140497
:101B500010921504109216041092170410929B0410
:101B600010929A0480939C0490939D04A0939E04E9
:101B7000B0939F04309399042093980485EC90E0EF
:101B80009093A5048093A40484EC90E09093A70420
:101B90008093A60480EC90E09093A9048093A8041D
:101BA00081EC90E09093AB048093AA0482EC90E0E7
:101BB0009093AD048093AC0486EC90E09093AF04D6
:101BC0008093AE041092B1041092B2041092B30448
:101BD0001092B4048091090290910A02A0910B0224
:101BE000B0910C0280932D0790932E07A0932F079E
:101BF000B093300780910D0290910E02A0910F02D8
:101C0000B09110028093310790933207A09333076D
:101C1000B093340784E08093350787E080933607DC
:101C20001092370784EB8093380786E18093390759
:101C300088E180933A0787E180933B0789E18093AD
:101C40003C07E0914306EC3008F4AAC08FEF809384
:101C50003D07E0914306EC3008F4B3C08FEF80936A
:101C60003E078CE080930C0784E280930D0786E0AA
:101C700080930E0785E080930F078FE18093100714
:101C80008EE18093110783E28093120782E28093B2
:101C9000130785E48093140784E48093150780E498
:101CA0008093180710921D0710921E0710921F07AD
:101CB00010922007109221071092220710922307FA
:101CC00010922407EEE4F6E02CE037E08FEF9FEF70
:101CD000DC0112821382148215821682178210860A
:101CE000118683879487A587B6878787908BA18B7A
:101CF000B28B12861182108273962E173F0749F716
:101D00008DE090E00E946814FC011382128289E346
:101D100092E091838083118687E2848384E18287C5
:101D200084E083871486F0934B06E0934A06109272
:101D30004C0610924D0685E28093360510923805C8
:101D400010924506109244061092470610924606DD
:101D5000109249061092480661E070E090E080E041
:101D60000E948D150097F1F19093450680934406EB
:101D70001092470610924606209148063091490677
:101D8000232B11F4FC011082109249061092480690
:101D90006FE572E080914406909145060C947716A9
:101DA00081E08E0F80934306E0933D0785E0E89F36
:101DB000F0011124E95FF94F88EB9BE09283818366
:101DC00048CF81E08E0F80934306E0933E0785E085
:101DD000E89FF0011124E95FF94F88EB9BE09283C3
:101DE00081833FCF8091440690914506009711F082
:101DF0000E9404151092450610924406109249065E
:101E0000109248061092470610924606089578945C
:101E100084B5826084BD84B5816084BD85B58260EF
:101E200085BD85B5816085BD80916E0081608093A0
:101E30006E00109281008091810082608093810009
:101E40008091810081608093810080918000816019
:101E5000809380008091B10084608093B100809174
:101E6000B00081608093B000809191008260809387
:101E70009100809191008160809391008091900009
:101E80008160809390008091A10082608093A10086
:101E90008091A10081608093A1008091A000816069
:101EA0008093A00080912101826080932101809124
:101EB00021018160809321018091200181608093C4
:101EC000200180917A00846080937A0080917A006A
:101ED000826080937A0080917A00816080937A009A
:101EE00080917A00806880937A001092C100E0911E
:101EF000A804F091A90482E08083E091A404F09109
:101F0000A5041082E091A604F091A7048FEC8083D1
:101F10001092B004E091AC04F091AD0486E08083AF
:101F2000E091AA04F091AB04808180618083E0910C
:101F3000AA04F091AB04808188608083E091AA04B8
:101F4000F091AB04808180688083E091AA04F091D5
:101F5000AB0480818F7D808361E080910D070E94BA
:101F6000500360E080910D070E94E30260E08091E1
:101F70000C070E94500382E593E09093170780932B
:101F800016071092B7021092B60210922F03109209
:101F900051030E9411038BEC91E09093DA0280933D
:101FA000D9028CEC91E09093DE028093DD0280E018
:101FB00090E1A0E0B0E08093190790931A07A093F6
:101FC0001B07B0931C078AE090E0A0E0B0E080938C
:101FD0001D0790931E07A0931F07B093200780E072
:101FE00090E0A0E0B0E48093210790932207A093B3
:101FF0002307B093240760E070E185E00E948D0420
:102000006FE979E380E00E948D040EE017E0CCE0F8
:10201000D7E0E0E1CE2EE7E0DE2EF0E46F2EF2E036
:102020007F2EA6E88A2EA2E09A2EBBECEB2EB7E01C
:10203000FB2E8BE8A82EBB24B394F80192818191EA
:102040008F01898F9A8F61E00E94500361E08A8D31
:102050000E945003F801958183818D8F9E8F61E0EE
:102060000E94500360E08E8D0E94500361E08D8DD0
:102070000E94E3025FB6F89480917F02811125C02F
:10208000F3018491F4019491E82FF0E0EE0FFF1F2B
:10209000E354FE4FA591B4918C91982321F461E013
:1020A00085E30E94E30261E085E30E9450038CB562
:1020B00080618CBD8CB580648CBD61E084E30E943E
:1020C000500361E083E30E94500380917F028F5FA1
:1020D00080937F025FBEC7010197F1F760E08D8DAD
:1020E0000E94E30288E80E94950783E00E9495071A
:1020F00061E08D8D0E94E302C7010197F1F760E076
:102100008D8D0E94E30288E90E94950780E00E947D
:10211000950780E00E94950780E00E94950780E087
:102120000E94950761E08D8D0E94E302C501019731
:10213000F1F760E08D8D0E94E30280EE0E9495072A
:1021400061E08D8D0E94E3022296CC16DD0609F037
:1021500074CF01E317E0CDE2D7E065E3E62E67E058
:10216000F62E60E0F80181918F010E945003E01685
:10217000F106B9F721E3E22E27E0F22E0DE217E097
:1021800035E0D32E4CE0B42E52E0C52E88898C3039
:1021900008F043C0A88461E08A2D0E94500388891A
:1021A000D89EF0011124E95FF94F2A2D2F739081F9
:1021B000907C922B9083138214826B2D0E94F113DA
:1021C0008B9DA001112430E020E0BA01620F731F43
:1021D000D69EF001D79EF00D1124E95FF94F908152
:1021E00096FD12C02F5F3F4F2C30310571F78111E2
:1021F0000BC010928000C092810010928500109256
:102200008400C6BAC0926F00E889DE9EF0011124F6
:10221000E95FF94F8081806480839E858C85F80119
:10222000828B938B60E00E94500361E0F801838908
:102230000E94500360E0F80183890E94E302219626
:102240000E5F1F4FE016F10609F0A0CFF894109230
:10225000200189E08093210180E293E0909329019D
:10226000809328011092250110922401C2E0C093AE
:1022700073007894C0933505109239058091360526
:1022800060E00E94500360E080E30E94500360E041
:1022900081E30E945003E091A804F091A904C08357
:1022A000E091A404F091A5041082E091A604F091BD
:1022B000A70480E180831092B004E091AC04F09117
:1022C000AD0486E08083E091AA04F091AB048081A4
:1022D00080618083E091AA04F091AB0480818860E2
:1022E0008083E091AA04F091AB04808180688083B0
:1022F000E091AA04F091AB0480818F7D808364E635
:1023000070E080E090E00E94C4040E94F60401E0C6
:1023100010E084E0E82EF12C93E0C92ED12CA0909F
:102320008B02B0908C02B0928A02A09289028091B6
:1023300034070E94BA02892B49F0A114B104F1F5C7
:102340000E94F60410938C0200938B0280E30E949B
:10235000BA02EC0181E0209709F480E080938802C2
:1023600081E30E94BA0280918B0290918C02181630
:10237000190634F4CD2B49F110938C0200938B0293
:10238000C0918B02D0918C02AC16BD0641F00E9428
:10239000EC0762E370E080E090E00E94C404C1308A
:1023A000D10509F44FC0FCF4CD2B09F440C00E94C4
:1023B000EC0710928C0210928B023BC00E94F60434
:1023C00010928C0210928B02C1CF8091010280FD8D
:1023D00005C0D0928C02C0928B02D2CFF0928C02B8
:1023E000E0928B02CDCFC330D10509F4C6C0C43012
:1023F000D105E9F64AE959E969E17EE387E297E028
:102400000E946E064AE959E969E17EE385E297E0B8
:102410000E946E0660EB74E080E090E00E94C404CD
:1024200080918202909183020396BE01C2C00E94F5
:10243000EC0764E670E080E090E00E94C4040E9433
:1024400049066DCF4AE959E969E97EEB87E297E0F1
:102450000E946E064AE959E969E97EE385E297E060
:102460000E946E062FB7F89480918E0290918F0291
:10247000A0919002B09191022FBF4091840250919F
:1024800085026091860270918702841B950BA60BD2
:10249000B70B813D9740A105B10558F280918202AA
:1024A00090918302009709F041C080918002909141
:1024B0008102019690938102809380022FB7F89455
:1024C00080918E0290918F02A0919002B091910222
:1024D0002FBF8093840290938502A0938602B093CD
:1024E000870281E492E00E94FB07609101027091F3
:1024F0000202072E000C880B990B97FF36C00E9432
:102500004C0884E592E00E94FB0760918002709184
:102510008102072E000C880B990B97FF2AC00E949E
:102520004C088DE592E00E94FB0783CF8230910535
:1025300031F480918002909181020197BBCF81306C
:10254000910551F4809101029091020201969093BD
:10255000020280930102B2CF039709F0AFCF8091BE
:102560000102909102020197F2CF4AE00E9408080E
:10257000C8CF4AE00E940808D4CF4AE959E969E186
:102580007EEB87E297E00E946E064AE959E969E12D
:102590007EEB85E297E00E946E0660EB74E080E0DF
:1025A00090E00E94C404809182029091830201967F
:1025B000B7010E94FD1390938302809382021093CF
:1025C0008C0200938B0235CF809144069091450692
:1025D000009711F00C9404150895990F0008550FF9
:1025E000AA0BE0E8FEEF16161706E807F907C0F099
:1025F00012161306E407F50798F0621B730B840BA1
:10260000950B39F40A2661F0232B242B252B21F47A
:1026100008950A2609F4A140A6958FEF811D811D1A
:1026200008950E9424130C9495130E94871338F088
:102630000E948E1320F0952311F00C947E130C94BD
:10264000841311240C94C9130E94A61370F3959F50
:10265000C1F3950F50E0551F629FF001729FBB2799
:10266000F00DB11D639FAA27F00DB11DAA1F649F35
:102670006627B00DA11D661F829F2227B00DA11DE8
:10268000621F739FB00DA11D621F839FA00D611D6E
:10269000221F749F3327A00D611D231F849F600D8F
:1026A000211D822F762F6A2F11249F5750409AF0B8
:1026B000F1F088234AF0EE0FFF1FBB1F661F771F44
:1026C000881F91505040A9F79E3F510580F00C940F
:1026D0007E130C94C9135F3FE4F3983ED4F38695C0
:1026E00077956795B795F795E7959F5FC1F7FE2BAF
:1026F000880F911D9695879597F9089597F99F678B
:1027000080E870E060E008959FEF80EC0895002479
:102710000A941616170618060906089500240A9446
:1027200012161306140605060895092E0394000CCC
:1027300011F4882352F0BB0F40F4BF2B11F460FF5B
:1027400004C06F5F7F4F8F4F9F4F089557FD905884
:10275000440F551F59F05F3F71F04795880F97FB65
:10276000991F61F09F3F79F087950895121613061F
:102770001406551FF2CF4695F1DF08C0161617064E
:102780001806991FF1CF8695710561050894089583
:10279000E894BB2766277727CB0197F90895A1E234
:1027A0001A2EAA1BBB1BFD010DC0AA1FBB1FEE1FCB
:1027B000FF1FA217B307E407F50720F0A21BB30B16
:1027C000E40BF50B661F771F881F991F1A9469F792
:1027D00060957095809590959B01AC01BD01CF01EE
:1027E0000895991B79E004C0991F961708F0961B6D
:1027F000881F7A95C9F78095089597FB072E16F4E0
:10280000009407D077FD09D00E94191407FC05D069
:102810003EF4909581959F4F0895709561957F4FF7
:102820000895EE0FFF1F881F8BBF0790F691E02DD4
:102830001994AA1BBB1B51E107C0AA1FBB1FA617F7
:10284000B70710F0A61BB70B881F991F5A95A9F759
:1028500080959095BC01CD0108950E943414689430
:10286000B1110C94C91308950E94AE1388F09F57BC
:1028700098F0B92F9927B751B0F0E1F0660F771FA4
:10288000881F991F1AF0BA95C9F714C0B13091F09A
:102890000E94C813B1E008950C94C813672F782FD5
:1028A0008827B85F39F0B93FCCF38695779567955F
:1028B000B395D9F73EF490958095709561957F4FCB
:1028C0008F4F9F4F08950E94ED1208F48FEF0895E7
:1028D0000F931F93CF93DF938230910510F482E022
:1028E00090E0E0914507F091460730E020E0B0E04D
:1028F000A0E0309799F42115310509F44AC0281B4E
:10290000390B24303105D8F58A819B816115710519
:1029100089F1FB0193838283FE0111C040815181C3
:102920000281138148175907E0F04817590799F4B5
:10293000109761F012960C93129713961C9332968F
:10294000CF01DF91CF911F910F910895009345071B
:1029500010934607F4CF2115310551F04217530764
:1029600038F0A901DB019A01BD01DF01F801C1CFF7
:10297000EF01F9CF9093460780934507CDCFFE0135
:10298000E20FF31F819391932250310939832883F9
:10299000D7CF2091430730914407232B41F4209156
:1029A000050230910602309344072093430720919B
:1029B0000302309104022115310541F42DB73EB7D1
:1029C0004091070250910802241B350BE091430708
:1029D000F0914407E217F307A0F42E1B3F0B2817D2
:1029E000390778F0AC014E5F5F4F2417350748F088
:1029F0004E0F5F1F50934407409343078193919379
:102A00009FCFF0E0E0E09CCFCF93DF930097E9F019
:102A1000FC01329713821282A0914507B0914607BC
:102A2000ED0130E020E01097A1F420813181820F88
:102A3000931F20914307309144072817390709F065
:102A400061C0F0934407E0934307DF91CF9108956D
:102A5000EA01CE17DF07E8F54A815B819E01411547
:102A60005105B1F7E901FB83EA8349915991C40FFC
:102A7000D51FEC17FD0761F4808191810296840FC8
:102A8000951FE90199838883828193819B838A833F
:102A9000F0E0E0E012968D919C9113970097B9F5C4
:102AA0002D913C911197CD010296820F931F209199
:102AB0004307309144072817390739F6309751F505
:102AC0001092460710924507B0934407A09343071E
:102AD000BCCFD383C28340815181840F951FC81717
:102AE000D90761F44E5F5F4F88819981480F591F64
:102AF000518340838A819B81938382832115310591
:102B000009F0B0CFF0934607E09345079ECFFD0153
:102B1000DC01C0CF13821282D7CF4F925F926F92A7
:102B20007F928F929F92AF92BF92CF92DF92EF925D
:102B3000FF920F931F93CF93DF938C01009799F42B
:102B4000CB01DF91CF911F910F91FF90EF90DF901C
:102B5000CF90BF90AF909F908F907F906F905F903D
:102B60004F900C946814FC01E60FF71F9C01225053
:102B70003109E217F30708F4AEC0D901CD91DC9119
:102B80001197C617D70720F1C530D10578F0CE01CF
:102B900004978617970750F0C61BD70B2297C1934F
:102BA000D1936D937C93CF010E940415C801DF91EE
:102BB000CF911F910F91FF90EF90DF90CF90BF903A
:102BC000AF909F908F907F906F905F904F900895FF
:102BD0005B01AC1ABD0A4C018C0E9D1EA0914507ED
:102BE000B0914607512C412CF12CE12C109731F576
:102BF00080914307909144078815990509F05CC0BE
:102C00004616570608F058C08091030290910402BE
:102C1000009741F48DB79EB740910702509108028A
:102C2000841B950BE817F90708F055C0F09344078B
:102C3000E0934307F90171836083B8CF8D919C9134
:102C4000119712966C90129713967C901397A81573
:102C5000B90559F56C0142E0C40ED11CCA14DB045D
:102C600020F1AC014A195B09DA011296159780F040
:102C70006282738251834083D9016D937C93E11406
:102C8000F10471F0D7011396FC93EE9312978ECF57
:102C900022968C0F9D1FF90191838083F301EFCF62
:102CA000F0934607E093450781CF4816590608F48C
:102CB0002C017D01D3019ACFCB010E9468147C01C5
:102CC000009749F0AE01B8010E946E16C8010E943B
:102CD000041587016BCF10E000E068CFFB01DC0139
:102CE00002C001900D9241505040D8F70895FB0169
:102CF000DC0101900D920020E1F7089511E0C0E79A
:102D0000D1E000E006C0802FFE010E941114219640
:102D1000011DC137D10780E00807A9F7F894FFCF5C
:102D2000FF0100000047078000363738391B1D1AA5
:102D30001C000000002402F701B007CD01F001DD06
:102D400001CE0100000000D90516055C0526068DA0
:102D5000056B057F0500000000C8071605B007AF2A
:102D600007506F736974696F6E3A20436F6C6F6EB2
:102D70006E653D002052616E6765653D000D0A007D
:00000001FF
