:100000000C9471010C94A2010C94A2010C94A20115
:100010000C94A2010C94A2010C94A2010C94A201D4
:100020000C94A2010C944E080C944E080C944E08AB
:100030000C94A2010C94C6090C94A2010C94A20188
:100040000C94A2010C941F0C0C94A2010C94A2011C
:100050000C94A2010C94A2010C94A2010C947C09B2
:100060000C94A2010C94350B0C940B0B0C94A20174
:100070000C94A2010C94A2010C94A2010C94A20174
:100080000C94A2010C94A2010C94A2010C94A20164
:100090000C94A2010C94A2010C94A2010C94580897
:1000A0000C94A2010C94A2010C94A2010C94A20144
:1000B0000C94A2010C94A2010C94A2010C945F0B6D
:1000C0000C94A2010C94A2010C94A2010C94E10ADC
:1000D0000C94B70A0C94A2010C948D0A0C94630A38
:1000E0000C94A2010C949A020C94F6040C947B02DA
:1000F0000C94B6020C9496020C945F050C9466075F
:100100000C94D3070C941B070C94E3060C949E02EA
:100110000C94A8020C94F7010C943C050C94700705
:100120000C942F070C947F020C94CD060C94AC0217
:100130000C94DD010C9411070C94CB010C94250751
:100140000C94B1020C94B2020C9490070C94CD0163
:100150000C944B050C94CE010C9486020C94F7067B
:100160000C94ED060C94CC010C948F070C940907A9
:100170000C9477020C944E120C948C020C94C70CC5
:100180000C946D050C9406060C94F0010C94DE069C
:100190000C9424020C9471020C9401070C945C07DB
:1001A0000C943E070C94A4020C94B9050C945207CD
:1001B0000C9490020C9448070C94830202000021D6
:1001C00000240027002A002D003000330001010028
:1001D00000040107010A0100002200250028002B6D
:1001E000002E003100340002010000050108010B5F
:1001F00001000020002300260029002C002F0032DF
:1002000000000100000301060109010505050507BD
:100210000508080808020202020A0A080804040481
:1002200004010101010101010103030303030303AD
:1002300003040707070C0C0C0C0C0C0C0C0202023C
:100240000206060606060606060B0B0B0B0B0B0B2F
:100250000B010210202008081020401020408002CE
:1002600001020108040201010204081020408080FC
:100270004020100804020180040201804020100880
:100280000402010804020101020408102040800158
:100290000204081020408000000A0B02090C0D0E19
:1002A0000807030401000000000000000000000037
:1002B000000000000000000000000000000000003E
:1002C00000000012111000000000000000000000FB
:1002D0000000000000000000000000000000C70C4B
:1002E0004E1211241FBECFEFD1E2DEBFCDBF00E022
:1002F0000CBF12E0A0E0B2E0E0E6FBE200E00BBFE2
:1003000002C007900D92A234B107D9F727E0A2E40A
:10031000B2E001C01D92A532B207E1F711E0C0E7DB
:10032000D1E000E006C021970109802FFE010E9464
:100330004513CF36D10780E00807A9F70E94B00E19
:100340000C949E150C9400002091B902260F3327BF
:10035000331F21323105ECF420910603FC0190E0BB
:1003600080E0243069F082E00895A091B9022191E3
:10037000AC0149565D4FA40FB52FB11D2C930196CA
:10038000861798F38091B902680F6093B90280E0F4
:10039000089581E00895089508950895E0919502E3
:1003A00080919402E81730F4F0E0EC58FD4F808122
:1003B00090E008958FEF9FEF0895909195028091BE
:1003C00094022FEF3FEF981748F4E92FF0E0EC5834
:1003D000FD4F208130E09F5F90939502C901089501
:1003E0008091940290919502891B990B0895CF9268
:1003F000DF92EF92FF920F931F93CF93DF937C01D5
:10040000CB018A0120910C03222389F0EB016B01BF
:10041000C40ED51ECC15DD0569F06991D701ED91AB
:10042000FC910190F081E02DC7011995F3CF642F65
:100430000E94A401C801DF91CF911F910F91FF90FD
:10044000EF90DF90CF900895CF93DF931F92CDB7B9
:10045000DEB7698320910C032223F9F020912F034A
:10046000203258F021E030E0FC013383228390E019
:1004700080E00F90DF91CF91089580910D03E82FD8
:10048000F0E0E25FFC4F998190838F5F80930D03D2
:1004900080932F0381E090E0ECCF61E0CE010196E4
:1004A0000E94A401F7CF8150823108F05AC0E82F92
:1004B000F0E08827E15AFD4F8F4F0C9445137F02DF
:1004C0008302710277027B02B10286028C029002E3
:1004D00096029A029E02A402A802B102AC02B202E3
:1004E000B602809180008F7780938000089580917C
:1004F00080008F7DF9CF80918000877FF5CF84B514
:100500008F7784BD089584B58F7DFBCF8091B00037
:100510008F778093B00008958091B0008F7DF9CFE0
:10052000809190008F778093900008958091900043
:100530008F7DF9CF80919000877FF5CF8091A000CB
:100540008F778093A00008958091A0008F7DF9CFD0
:100550008091A000877FF5CF809120018F778093D5
:1005600020010895809120018F7DF9CF8091200195
:10057000877FF5CFCF93DF93282F30E0F901E9563D
:10058000FD4F8491F901EF5AFD4FD491F901E55FD8
:10059000FD4FC491CC23A1F081110E945302EC2F96
:1005A000F0E0EE0FFF1FEF50FE4FA591B491EC91DC
:1005B000ED2381E090E009F480E0DF91CF91089590
:1005C00080E090E0FACF1F93CF93DF93282F30E0A5
:1005D000F901E956FD4F8491F901EF5AFD4FD4918D
:1005E000F901E55FFD4FC491CC23A9F0162F8111CD
:1005F0000E945302EC2FF0E0EE0FFF1FE952FE4F76
:10060000A591B4918FB7F894EC91111108C0D095D1
:10061000DE23DC938FBFDF91CF911F910895DE2BF6
:10062000F8CF1092060381E0809305031092E00258
:1006300061E084E10E94E30261E085E10E94E3025F
:10064000E9EBF0E080818E7F808380818D7F8083E5
:1006500088E48093B80085E48093BC000895CF932C
:10066000DF9391E0909396028823B9F0C091B8008F
:10067000D091BA008091BC008A7B8093BC0060E07E
:1006800084E10E94E30260E085E10E94E3020E94AF
:100690001103D093BA00C093B800DF91CF910895B1
:1006A000CF93DF9390E0FC01EF5AFD4F2491855FDB
:1006B0009D4FFC0184918823D1F090E0880F991F11
:1006C000FC01E354FE4FA591B491FC01E952FE4FA9
:1006D000C591D49161110EC09FB7F8948C91E22F0F
:1006E000E0958E238C932881E223E8839FBFDF91DE
:1006F000CF9108958FB7F894EC91E22BEC938FBFD4
:10070000F6CF3FB7F8948091700290917102A0915A
:100710007202B091730226B5A89B05C02F3F19F055
:100720000196A11DB11D3FBFBA2FA92F982F882771
:10073000BC01CD01620F711D811D911D42E0660F4C
:10074000771F881F991F4A95D1F70895CF92DF929E
:10075000EF92FF920F931F93CF93DF93D0912F03CC
:1007600081E0D13208F09CC0C0912E030E94810329
:100770006B017C018091060381116CC082E0809343
:10078000060381E0809305038FEF809304031092AA
:100790000303D0930203AEE0B3E0E2EEF2E080E0C8
:1007A000D8138DC01092E1028091E102CC0FC82BCA
:1007B000C093E1028091E002813009F084C0109280
:1007C000E0020E9481036B017C018091E102809331
:1007D000BB008091080390910903A0910A03B09196
:1007E0000B03892B8A2B8B2BA1F00E948103009194
:1007F00008031091090320910A0330910B036C192F
:100800007D098E099F09061717072807390708F47D
:1008100042C08091BC0083FDD8CF85EC8093BC00A2
:100820000E9481036B017C0180910603823009F4F0
:100830004CC0809104038F3F09F469C08091040388
:10084000803209F466C080910403803309F463C0E8
:1008500084E026C08091080390910903A0910A03C7
:10086000B0910B03892B8A2B8B2B09F483CF0E9429
:100870008103009108031091090320910A0330912C
:100880000B036C197D098E099F09061717072807A6
:10089000390708F06FCF809107030E942F0385E08E
:1008A00010920D0310922F0310920C03DF91CF9141
:1008B0001F910F91FF90EF90DF90CF9008959D9141
:1008C00091938F5F6DCF85EEA9CF809108039091B2
:1008D0000903A0910A03B0910B03892B8A2B8B2B60
:1008E00009F4A2CF0E94810300910803109109032B
:1008F00020910A0330910B036C197D098E099F0921
:10090000061717072807390708F08ECFC4CF80E0F5
:10091000C7CF82E0C5CF83E0C3CF0F931F93CF93A0
:10092000DF93162F072FCAEED6E0AA85BB859C85DC
:1009300021E020930C0390932E0310920D0310924C
:100940002F03ED91FC9111970190F081E02D682F1C
:10095000CD0119958A859B85DC01ED91FC91019073
:10096000F081E02D602F19958A859B85DC01ED9142
:10097000FC910190F081E02D612F1995DF91CF91CD
:100980001F910F910C94A6038F929F92AF92BF92EA
:10099000CF92DF92EF92FF924B015C010E948103A4
:1009A0006B017C010E9481036C197D098E099F09EE
:1009B000683E734081059105A8F321E0821A9108F1
:1009C000A108B10888EEC80E83E0D81EE11CF11C16
:1009D00081149104A104B10429F7FF90EF90DF90F6
:1009E000CF90BF90AF909F908F900895AF92BF929D
:1009F000CF92DF92EF92FF920F931F93CF93DF93EB
:100A00006C017B018B01040F151FEB015E01AE1819
:100A1000BF08C017D10759F06991D601ED91FC913B
:100A20000190F081E02DC6011995892B79F7C50158
:100A3000DF91CF911F910F91FF90EF90DF90CF90BA
:100A4000BF90AF900895FC01A089B1898C91A689CF
:100A5000B78982FD0FC09C91818D8F5F8F73228D2E
:100A6000821749F0A18DAE0FBF2FB11D5D969C93EB
:100A7000818F08958C910895FC01538D448D252F0D
:100A800030E0842F90E0821B930B541710F0CF9628
:100A9000089501970895FC01918D828D981761F05A
:100AA000A28DAE0FBF2FB11D5D968C91928D9F5F71
:100AB0009F73928F90E008958FEF9FEF0895FC0150
:100AC000918D828D981731F0828DE80FF11D858D03
:100AD00090E008958FEF9FEF0895FC01918D228D96
:100AE000892F90E0805C9F4F821B91098F7399271B
:100AF00008958CE393E00E946D0521E0892B09F4B1
:100B000020E0822F089589ED93E00E946D0521E099
:100B1000892B09F420E0822F089586E794E00E9453
:100B20006D0521E0892B09F420E0822F0895FC0156
:100B3000A48DA80FB92FB11DA35ABF4F2C91848D3E
:100B400090E001968F739927848FA689B7892C939B
:100B5000A089B1898C91837080648C93938D848DEE
:100B6000981306C00288F389E02D80818F7D8083F1
:100B70000895EF92FF920F931F93CF93DF93EC01B1
:100B800081E0888F9B8D8C8D98131AC0E889F98934
:100B9000808185FF15C09FB7F894EE89FF89608337
:100BA000E889F98980818370806480839FBF81E0B8
:100BB00090E0DF91CF911F910F91FF90EF900895FA
:100BC000F62E0B8D10E00F5F1F4F0F731127E02ED5
:100BD0008C8D8E110CC00FB607FCFACFE889F9890D
:100BE000808185FFF5CFCE010E949705F1CFEB8D77
:100BF000EC0FFD2FF11DE35AFF4FF0829FB7F894E1
:100C00000B8FEA89FB8980818062CFCFCF93DF93FE
:100C1000EC01888D8823B9F0AA89BB89E889F98914
:100C20008C9185FD03C0808186FD0DC00FB607FC49
:100C3000F7CF8C9185FFF2CF808185FFEDCFCE017C
:100C40000E949705E9CFDF91CF910895F0E0E0E0B1
:100C5000199480E090E0892B29F00E948D05811184
:100C60000E94000080E090E0892B49F080E090E055
:100C7000892B29F00E94000081110E9400000E942F
:100C8000830581110E94260680E090E0892B29F0DF
:100C90000E94790581110C94000008958F929F9213
:100CA000AF92BF92CF92DF92EF92FF920F931F937A
:100CB000CF93DF93EC016A017B0120E030E04FE746
:100CC00053E4CB01B6010E947B124B015C0120E092
:100CD00030E0A9010E94831318168CF5C501B401F8
:100CE0000E944D138B01B98020E030E0A901C701BB
:100CF000B6010E94831360E018160CF061E08B2DA2
:100D00000E94E3020F3F110509F0ECF41127C8819E
:100D100061E08C2F0E94500301151105B9F460E0C9
:100D20008C2FDF91CF911F910F91FF90EF90DF906B
:100D3000CF90BF90AF909F908F900C94E302C5012D
:100D4000B4019058CDCF0FEF10E0E1CF0F3F110568
:100D500011F461E0E5CFEC2FF0E0E956FD4FE491AE
:100D6000E150E23108F0BCC0F0E08827E554F94FCB
:100D70008F4F0C944513CD06DE06E306ED06F7060D
:100D800070070107090711071B0725072F073E07F3
:100D90004807700752075C07660784B5806884BD02
:100DA00007BDDF91CF911F910F91FF90EF90DF90E2
:100DB000CF90BF90AF909F908F90089584B5806240
:100DC00084BD08BDEECF8091800080688093800054
:100DD0001093890000938800E4CF809180008062A6
:100DE0008093800010938B0000938A00DACF80916B
:100DF000800088608093800010938D0000938C00A9
:100E0000D0CF8091B00080688093B0000093B30091
:100E1000C8CF8091B00080628093B0000093B4008E
:100E2000C0CF8091900080688093900010939900CB
:100E300000939800B6CF80919000806280939000DC
:100E400010939B0000939A00ACCF80919000886033
:100E50008093900010939D0000939C00A2CF8091FE
:100E6000A00080688093A0008091A0008F7B809379
:100E7000A0001093A9000093A80093CF8091A00038
:100E800080628093A0001093AB000093AA0089CFEA
:100E90008091A00088608093A0001093AD00009323
:100EA000AC007FCF80912001806880932001109357
:100EB00029010093280175CF8091200180628093E1
:100EC000200110932B0100932A016BCF8091200108
:100ED00088608093200110932D0100932C0161CF35
:100EE000003811050CF035CF1ACF8EBD00000DB4BF
:100EF00007FEFDCF8EB50895FC01248131E03093CB
:100F00000C0320932E0310920D0310922F0384855F
:100F1000682B80E393E00E9424020C94A6030895BA
:100F200090E080E008950F931F93CF93DF938C019F
:100F3000D0E0C0E061E08091EB060E94E30264E64D
:100F400070E080E090E00E94C40460E08091EB06D5
:100F50000E94E30264E670E080E090E00E94C40436
:100F600021960C171D0731F760E971E080E090E0F1
:100F7000DF91CF911F910F910C94C4040F931F9395
:100F8000CF938C01C62F64600E947C076C2F6B7F0F
:100F9000C8010E947C0783EC90E00197F1F7CF91A4
:100FA0001F910F9108950F931F93CF93DF938C019F
:100FB000C62FD62FD07FD1606D2F0E947C076D2F5A
:100FC000C8010E94BE0780E1C89FE0011124C160F2
:100FD0006C2FC8010E947C076C2FC8010E94BE07BD
:100FE00081E090E0DF91CF911F910F9108954DEC3A
:100FF0005CEC6CE47EEB85E097E00E944E064DECE5
:101000005CEC6CE47EE383E097E00C944E0640E0F9
:1010100050E060E070E885E097E00E944E0640E016
:1010200050E0BA0183E097E00C944E0685ED809382
:10103000BC008091080390910903A0910A03B0912C
:101040000B030796A11DB11D23E0B695A7959795B3
:1010500087952A95D1F72091BC0024FD03C01092FA
:1010600006030895409108035091090360910A0313
:1010700070910B03452B462B472B69F30097A10575
:10108000B10541F02AE22A95F1F700C00197A109C4
:10109000B109E1CF809107030C942F031F920F92A7
:1010A0000FB60F9211240F900FBE0F901F9018953E
:1010B0001F920F920FB60F9211240BB60F922F931F
:1010C0003F934F935F936F937F938F939F93AF93D0
:1010D000BF93EF93FF938091B900887F803609F426
:1010E0004DC008F040C0883209F4A9C028F580310D
:1010F00009F49DC0C8F4882309F4FBC0883009F4C2
:1011000096C0FF91EF91BF91AF919F918F917F9189
:101110006F915F914F913F912F910F900BBE0F9068
:101120000FBE0F901F901895883109F488C0803247
:1011300041F78093040314C0803409F49DC040F447
:101140008033B9F38833E9F68093040385ECB0C0AB
:10115000803509F485C0883509F496C0883489F64D
:101160000E941608CECF883909F48CC038F588372C
:1011700029F050F4883611F0803719F683E0809317
:1011800006031092DD0257C0883809F47BC080390D
:1011900019F0803809F0B5CF8091DD02803208F077
:1011A00071C0E091DD0281E08E0F8093DD028091BD
:1011B000BB00F0E0E354FD4F80833DC0803B39F03D
:1011C000E0F4803A09F479C0883A09F09ACF84E0D3
:1011D000809306031092BA021092B902E091B7020E
:1011E000F091B80219958091B90281110FC081E088
:1011F0008093B9021092970209C0803C09F4A6CFEF
:10120000883C09F4A3CF883B09F07BCFE091BA0278
:1012100081E08E0F8093BA02F0E0E956FD4F8081A5
:101220008093BB009091BA028091B90229C080914D
:10123000E1028093BB0085EC8093BC0062CF90916B
:10124000030380910203981758F5E091030381E0AE
:101250008E0F80930303F0E0EE51FD4F8081E9CFC4
:10126000E091030381E08E0F809303038091BB0024
:10127000F0E0EE51FD4F80839091030380910203D3
:101280009817C8F285E8D8CFE091030381E08E0F6C
:10129000809303038091BB00F0E0EE51FD4F80830B
:1012A0008091050381115CCF81E08093E00284EAA4
:1012B0008093BC001092060324CF85EC8093BC0081
:1012C000109206038091DD02803230F4E091DD025D
:1012D000F0E0E354FD4F10826091DD0270E0E09198
:1012E000BB02F091BC028DEB92E019951092DD02E9
:1012F00008CF1092040334CF1F920F920FB60F92B3
:1013000011242F933F938F939F93AF93BF9380911B
:101310006C0290916D02A0916E02B0916F023091BB
:101320006B0223E0230F2D3758F50196A11DB11D47
:1013300020936B0280936C0290936D02A0936E02D7
:10134000B0936F028091700290917102A09172022D
:10135000B09173020196A11DB11D8093700290930C
:101360007102A0937202B0937302BF91AF919F91EB
:101370008F913F912F910F900FBE0F901F90189556
:1013800026E8230F0296A11DB11DD2CF1F920F9206
:101390000FB60F9211240BB60F922F933F934F93DA
:1013A0005F936F937F938F939F93AF93BF93EF93CD
:1013B000FF9380915D0290915E02A0915F02B091D7
:1013C0006002892B8A2B8B2BD1F190915C0280914A
:1013D000000089278093000080915D0290915E0259
:1013E000A0915F02B0916002181619061A061B063A
:1013F0009CF480915D0290915E02A0915F02B09199
:1014000060020197A109B10980935D0290935E0289
:10141000A0935F02B0936002FF91EF91BF91AF91F3
:101420009F918F917F916F915F914F913F912F91FC
:101430000F900BBE0F900FBE0F901F9018958091CC
:101440000002ECEBF1E0E4919FEF90930002E230B8
:10145000E9F040F4EE2389F0E13091F060E00E9481
:10146000E302DACFE43049F110F1E530B9F79091B9
:1014700073009D7F90937300F1CF10926E00EECFBA
:1014800090916F009D7F90936F00E8CF90917000D6
:101490009D7F9093700091E09093B0009091B10087
:1014A000987F94609093B1001092B300D7CF909141
:1014B00071009D7F90937100D1CF909172009D7FBC
:1014C00090937200CBCF1F920F920FB60F92112400
:1014D0000BB60F922F933F934F935F936F937F932E
:1014E0008F939F93AF93BF93EF93FF938CE393E01E
:1014F0000E949705FF91EF91BF91AF919F918F91BE
:101500007F916F915F914F913F912F910F900BBE03
:101510000F900FBE0F901F9018951F920F920FB64D
:101520000F9211240BB60F922F933F934F935F931B
:101530006F937F938F939F93AF93BF93EF93FF939B
:101540008CE393E00E942305FF91EF91BF91AF914F
:101550009F918F917F916F915F914F913F912F91CB
:101560000F900BBE0F900FBE0F901F9018951F92FB
:101570000F920FB60F9211240BB60F922F933F9339
:101580004F935F936F937F938F939F93AF93BF938B
:10159000EF93FF9389ED93E00E949705FF91EF9100
:1015A000BF91AF919F918F917F916F915F914F917B
:1015B0003F912F910F900BBE0F900FBE0F901F9079
:1015C00018951F920F920FB60F9211240BB60F921F
:1015D0002F933F934F935F936F937F938F939F933B
:1015E000AF93BF93EF93FF9389ED93E00E942305A0
:1015F000FF91EF91BF91AF919F918F917F916F91EB
:101600005F914F913F912F910F900BBE0F900FBEA6
:101610000F901F9018951F920F920FB60F921124E2
:101620000BB60F922F933F934F935F936F937F93DC
:101630008F939F93AF93BF93EF93FF9386E794E0CD
:101640000E949705FF91EF91BF91AF919F918F916C
:101650007F916F915F914F913F912F910F900BBEB2
:101660000F900FBE0F901F9018951F920F920FB6FC
:101670000F9211240BB60F922F933F934F935F93CA
:101680006F937F938F939F93AF93BF93EF93FF934A
:1016900086E794E00E942305FF91EF91BF91AF91FF
:1016A0009F918F917F916F915F914F913F912F917A
:1016B0000F900BBE0F900FBE0F901F9018951F92AA
:1016C0000F920FB60F9211240BB60F922F933F93E8
:1016D0004F935F936F937F938F939F93AF93BF933A
:1016E000EF93FF93809114050E94BA022091180590
:1016F000309119052F5F3F4F30931905209318053E
:1017000090911705953618F096E0909313059091F7
:101710001305943009F466C0B8F49230F1F09330B8
:1017200009F444C090911605992309F46BC0811106
:101730007CC080911505882309F463C0809115054C
:1017400061E00E94E3025EC0953009F457C0963014
:1017500049F791E09093E4054FC08111E3CF2091C8
:101760001805309119052436310528F41092190511
:1017700010921805D7CF1092E40510921705E0914A
:10178000170591E09E0F90931705F0E02091180542
:1017900030911905EE0FFF1FED5EFA4F308727835A
:1017A000109219051092180593E019C0813009F0C4
:1017B000B9CFE091170591E09E0F90931705F0E0E7
:1017C0002091180530911905EE0FFF1FED5EFA4FBD
:1017D00030872783109219051092180594E0909392
:1017E0001305A0CF882359F22091180530911905CF
:1017F0002536310508F496CF95E0F1CF811192CFCF
:10180000B5CF2F9AFF91EF91BF91AF919F918F919B
:101810007F916F915F914F913F912F910F900BBEF0
:101820000F900FBE0F901F9018958091150588237B
:1018300021F08091150560E084CF2F98E3CF1F92AF
:101840000F920FB60F9211240BB60F922F933F9366
:101850004F935F936F937F938F939F93AF93BF93B8
:10186000CF93DF93EF93FF9380915B02C0912106AA
:10187000D0E087FF23C010928500109284008091F1
:101880005B028F5F80935B0280915B02082E000CED
:10189000990B8C179D0724F480915B028C3074F1B6
:1018A000809184009091850084349C4908F465C03F
:1018B0008091840090918500049661C080915B02C4
:1018C000082E000C990B8C179D07CCF630915B020B
:1018D00025E03203F0011124EB51FA4F808186FF9D
:1018E000CECF30915B023203F0011124EB51FA4F5D
:1018F000808160E08F730E94E302C1CF80918400F9
:101900009091850030915B0225E03203F0011124B3
:10191000EB51FA4F41815281840F951F90938900BA
:101920008093880030915B023203F0011124EB5167
:10193000FA4F808186FF0CC030915B023203F001C8
:101940001124EB51FA4F808161E08F730E94E30212
:10195000FF91EF91DF91CF91BF91AF919F918F91C7
:101960007F916F915F914F913F912F910F900BBE9F
:101970000F900FBE0F901F90189580E49CE99093F4
:101980008900809388008FEF80935B02E1CF1092F3
:1019900033031092320388EE93E0A0E0B0E080932E
:1019A000340390933503A0933603B093370325E1B6
:1019B00032E0309331032093300310923F031092B2
:1019C0003E038093400390934103A0934203B0935E
:1019D000430327E232E030933D0320933C0345E389
:1019E00051E0509349034093480344E351E050933E
:1019F0004B0340934A0340E351E050934D0340931F
:101A00004C0341E351E050934F0340934E0342E3B4
:101A100051E0509351034093500346E351E05093FB
:101A200053034093520310925503109256031092A1
:101A30005703109258031092DC031092DB0380933B
:101A4000DD039093DE03A093DF03B093E0033093B4
:101A5000DA032093D90345ED50E05093E603409319
:101A6000E50344ED50E05093E8034093E70340ED75
:101A700050E05093EA034093E90341ED50E0509366
:101A8000EC034093EB0342ED50E05093EE034093A0
:101A9000ED0346ED50E05093F0034093EF031092B6
:101AA000F2031092F3031092F4031092F5031092D4
:101AB00079041092780480937A0490937B04A09325
:101AC0007C04B0937D04309377042093760485ECF6
:101AD00090E0909383048093820484EC90E0909350
:101AE00085048093840480EC90E090938704809335
:101AF000860481EC90E0909389048093880482ECC2
:101B000090E090938B0480938A0486EC90E090930D
:101B10008D0480938C0410928F0410929004109284
:101B20009104109292048091090290910A02A0916E
:101B30000B02B0910C0280930B0790930C07A093BB
:101B40000D07B0930E0780910D0290910E02A091A7
:101B50000F02B091100280930F0790931007A0938B
:101B60001107B093120784E08093130787E08093F6
:101B700014071092150784EB8093160786E1809373
:101B8000170788E18093180787E18093190789E197
:101B900080931A07E0912106EC3008F4AAC08FEF79
:101BA00080931B07E0912106EC3008F4B3C08FEF5F
:101BB00080931C078CE08093EA0684E28093EB0616
:101BC00086E08093EC0685E08093ED068FE18093BC
:101BD000EE068EE18093EF0683E28093F00682E2C8
:101BE0008093F10685E48093F20684E48093F30603
:101BF00080E48093F6061092FB061092FC06109289
:101C0000FD061092FE061092FF0610920007109239
:101C1000010710920207ECE2F6E02AEE36E08FEFC1
:101C20009FEFDC01128213821482158216821782C2
:101C30001086118683879487A587B6878787908BC0
:101C4000A18BB28B12861182108273962E173F07DA
:101C500049F78DE090E00E948813FC011382128204
:101C600089E392E091838083118687E2848384E113
:101C7000828784E083871486F0932906E093280600
:101C800010922A0610922B0685E28093140510927A
:101C90001605109223061092220610922506109225
:101CA0002406109227061092260661E070E090E06C
:101CB00080E00E94AD140097F1F190932306809389
:101CC00022061092250610922406209126063091B5
:101CD0002706232B11F4FC01108210922706109284
:101CE000260661E472E080912206909123060C940E
:101CF000971581E08E0F80932106E0931B0785E006
:101D0000E89FF0011124EB51FA4F88EB9BE092839E
:101D1000818348CF81E08E0F80932106E0931C07DA
:101D200085E0E89FF0011124EB51FA4F88EB9BE02E
:101D3000928381833FCF8091220690912306009762
:101D400011F00E9424141092230610922206109281
:101D50002706109226061092250610922406089552
:101D6000789484B5826084BD84B5816084BD85B576
:101D7000826085BD85B5816085BD80916E00816082
:101D800080936E0010928100809181008260809328
:101D9000810080918100816080938100809180002A
:101DA0008160809380008091B10084608093B10055
:101DB0008091B00081608093B0008091910082603A
:101DC0008093910080919100816080939100809137
:101DD00090008160809390008091A1008260809348
:101DE000A1008091A10081608093A1008091A0005A
:101DF00081608093A0008091210182608093210105
:101E00008091210181608093210180912001816076
:101E10008093200180917A00846080937A00809181
:101E20007A00826080937A0080917A00816080934A
:101E30007A0080917A00806880937A001092C100C5
:101E4000E0918604F091870482E08083E09182042F
:101E5000F09183041082E0918404F09185048FEC6A
:101E6000808310928E04E0918A04F0918B0486E0C6
:101E70008083E0918804F09189048081806180836F
:101E8000E0918804F0918904808188608083E091EA
:101E90008804F0918904808180688083E0918804BF
:101EA000F091890480818F7D808361E08091EB06D1
:101EB0000E94500360E08091EB060E94E30260E024
:101EC0008091EA060E94500380E393E09093F50628
:101ED0008093F406109295021092940210920D03D2
:101EE00010922F030E9411038BEC91E09093B802A3
:101EF0008093B7028CEC91E09093BC028093BB027C
:101F000080E090E1A0E0B0E08093F7069093F806BF
:101F1000A093F906B093FA068AE090E0A0E0B0E062
:101F20008093FB069093FC06A093FD06B093FE06FB
:101F300080E090E0A0E0B0E48093FF06909300077B
:101F4000A0930107B093020760E070E185E00E9472
:101F50008D046FE979E380E00E948D040CEE16E0B9
:101F6000CAEED6E06EEEC62E66E0D62E70E4672E80
:101F700072E0772EE6E88E2EE2E09E2EFBECEF2E4E
:101F8000F7E0FF2EABE8AA2EBB24B394F8019281B0
:101F900081918F01898F9A8F61E00E94500361E0E7
:101FA0008A8D0E945003F801958183818D8F9E8FC9
:101FB00061E00E94500360E08E8D0E94500361E05A
:101FC0008D8D0E94E3025FB6F894809161028111C9
:101FD00025C0F3018491F4019491E82FF0E0EE0F15
:101FE000FF1FE354FE4FA591B4918C91982321F4E7
:101FF00061E085E30E94E30261E085E30E94500313
:102000008CB580618CBD8CB580648CBD61E084E34F
:102010000E94500361E083E30E94500380916102BB
:102020008F5F809361025FBEC7010197F1F760E0A7
:102030008D8D0E94E30288E80E94750783E00E946C
:10204000750761E08D8D0E94E302C7010197F1F7EA
:1020500060E08D8D0E94E30288E90E94750780E0B0
:102060000E94750780E00E94750780E00E94750756
:1020700080E00E94750761E08D8D0E94E302C5013A
:102080000197F1F760E08D8D0E94E30280EE0E94DF
:10209000750761E08D8D0E94E3022296CC16DD0665
:1020A00009F074CF0FE017E0CBE0D7E043E1E42E76
:1020B00047E0F42E60E0F80181918F010E94500307
:1020C000E016F106B9F70BE017E095E0F92E2CE0E9
:1020D000D22E32E0E32E88898C3008F043C0C884C9
:1020E00061E08C2D0E9450038889F89EF001112434
:1020F000EB51FA4F2C2D2F739081907C922B908373
:10210000138214826D2D0E9439138D9DA00111241C
:1021100030E020E0BA01620F731FF69EF001F79ED7
:10212000F00D1124EB51FA4F908196FD12C02F5FF4
:102130003F4F2C30310571F781110BC01092800098
:10214000E09281001092850010928400E6BAE0923D
:102150006F00E889FE9EF0011124EB51FA4F808157
:10216000806480839E858C85F801828B938B60E0F0
:102170000E94500361E0F80183890E94500360E0EF
:10218000F80183890E94E30221960E5F1F4FF7E05A
:102190000F301F0709F09FCFF8941092200189E0BB
:1021A0008093210180E293E090932901809328019C
:1021B0001092250110922401C2E0C093730078941C
:1021C000C0931305109217058091140560E00E94DA
:1021D000500360E080E30E94500360E081E30E94CE
:1021E0005003E0918604F0918704C083E09182045B
:1021F000F09183041082E0918404F091850480E1E1
:10220000808310928E04E0918A04F0918B0486E022
:102210008083E0918804F0918904808180618083CB
:10222000E0918804F0918904808188608083E09146
:102230008804F0918904808180688083E09188041B
:10224000F091890480818F7D808364E670E080E076
:1022500090E00E94C40483E090E00E94930703E0B2
:1022600010E084E0E82EF12CC0916902D0916A025E
:10227000D0936802C0936702809112070E94BA024D
:10228000892B61F02097C1F582E090E00E949307CE
:1022900081E090E090936A028093690280E30E945B
:1022A000BA026C0181E0C114D10409F480E080938A
:1022B000660281E30E94BA022091690230916A02AB
:1022C000121613060CF0D1C0CD2809F4B8C0892B22
:1022D00009F4CBC080916402909165020097A9F443
:1022E00080916202909163020196909363028093C1
:1022F000620281E090E01AC081E090E00E949307C2
:1023000010926A0210926902C9CF8130910599F446
:1023100020910102309102022230310509F4A1C05E
:102320002F5F3F4F309302022093010290936A0285
:10233000809369029AC08230910551F480916202C3
:1023400090916302019790936302809362028DC023
:10235000039709F08AC080910102909102020097D0
:1023600031F001979093020280930102C2CF109343
:102370006A020093690279C0C230D10591F16CF410
:10238000209749F1219751F10E94F70781E090E0F1
:1023900090936A028093690278C0C330D10591F1AD
:1023A000249791F74DEC5CEC6CEC7DE385E097E0D5
:1023B0000E944E064DEC5CEC6CEC7DE383E097E014
:1023C0000E944E068091640290916502009709F484
:1023D0005CC001972FC00E94070857C00E94F707F2
:1023E00054C04DEC5CEC6CEC7DE385E097E00E9422
:1023F0004E064DEC5CEC6CE47EEB83E097E00E94D3
:102400004E0643C04DEC5CEC6CEC7DEB85E097E058
:102410000E944E064DEC5CEC6CEC7DEB83E097E0AB
:102420000E944E068091640290916502833091056E
:1024300061F10196909365028093640226C0892B16
:10244000A1F40E94F70780916402909165020097C1
:1024500009F48DCF8330910509F489CF0197029754
:1024600020F4F0926A02E0926902809169029091F0
:102470006A02C817D90709F47FCF0E94070862E3F0
:1024800070E080E090E00E94C40468EC70E080E0BE
:1024900090E00E94C4040E942906E6CE80912206A4
:1024A00090912306009711F00C9424140895990F2D
:1024B0000008550FAA0BE0E8FEEF16161706E8070E
:1024C000F907C0F012161306E407F50798F0621B2F
:1024D000730B840B950B39F40A2661F0232B242B04
:1024E000252B21F408950A2609F4A140A6958FEF23
:1024F000811D811D08950E948E120C94FF120E946E
:10250000F11238F00E94F81220F0952311F00C948B
:10251000E8120C94EE1211240C9433130E94101341
:1025200070F3959FC1F3950F50E0551F629FF00126
:10253000729FBB27F00DB11D639FAA27F00DB11D3F
:10254000AA1F649F6627B00DA11D661F829F2227C8
:10255000B00DA11D621F739FB00DA11D621F839F4F
:10256000A00D611D221F749F3327A00D611D231F25
:10257000849F600D211D822F762F6A2F11249F5773
:1025800050409AF0F1F088234AF0EE0FFF1FBB1F76
:10259000661F771F881F91505040A9F79E3F510535
:1025A00080F00C94E8120C9433135F3FE4F3983EF0
:1025B000D4F3869577956795B795F795E7959F5FDF
:1025C000C1F7FE2B880F911D9695879597F9089571
:1025D00097F99F6780E870E060E008959FEF80ECD6
:1025E000089500240A941616170618060906089579
:1025F00000240A9412161306140605060895092EDF
:102600000394000C11F4882352F0BB0F40F4BF2B4D
:1026100011F460FF04C06F5F7F4F8F4F9F4F08958D
:1026200057FD9058440F551F59F05F3F71F0479583
:10263000880F97FB991F61F09F3F79F08795089568
:10264000121613061406551FF2CF4695F1DF08C087
:10265000161617061806991FF1CF869571056105A4
:1026600008940895E894BB2766277727CB0197F94C
:102670000895991B79E004C0991F961708F0961BDE
:10268000881F7A95C9F780950895EE0FFF1F881F60
:102690008BBF0790F691E02D19940E945413689413
:1026A000B1110C94331308950E94181388F09F57AA
:1026B00098F0B92F9927B751B0F0E1F0660F771F66
:1026C000881F991F1AF0BA95C9F714C0B13091F05C
:1026D0000E943213B1E008950C943213672F782FC3
:1026E0008827B85F39F0B93FCCF386957795679521
:1026F000B395D9F73EF490958095709561957F4F8D
:102700008F4F9F4F08950E94571208F48FEF08953E
:102710000F931F93CF93DF938230910510F482E0E3
:1027200090E0E0912307F091240730E020E0B0E052
:10273000A0E0309799F42115310509F44AC0281B0F
:10274000390B24303105D8F58A819B8161157105DB
:1027500089F1FB0193838283FE0111C04081518185
:102760000281138148175907E0F04817590799F477
:10277000109761F012960C93129713961C93329651
:10278000CF01DF91CF911F910F91089500932307FF
:1027900010932407F4CF2115310551F04217530748
:1027A00038F0A901DB019A01BD01DF01F801C1CFB9
:1027B000EF01F9CF9093240780932307CDCFFE013B
:1027C000E20FF31F819391932250310939832883BB
:1027D000D7CF2091210730912207232B41F420915C
:1027E00005023091060230932207209321072091A1
:1027F0000302309104022115310541F42DB73EB793
:102800004091070250910802241B350BE0912107EB
:10281000F0912207E217F307A0F42E1B3F0B2817B5
:10282000390778F0AC014E5F5F4F2417350748F049
:102830004E0F5F1F5093220740932107819391937E
:102840009FCFF0E0E0E09CCFCF93DF930097E9F0DB
:10285000FC01329713821282A0912307B0912407C2
:10286000ED0130E020E01097A1F420813181820F4A
:10287000931F20912107309122072817390709F06B
:1028800061C0F0932207E0932107DF91CF91089573
:10289000EA01CE17DF07E8F54A815B819E01411509
:1028A0005105B1F7E901FB83EA8349915991C40FBE
:1028B000D51FEC17FD0761F4808191810296840F8A
:1028C000951FE90199838883828193819B838A8301
:1028D000F0E0E0E012968D919C9113970097B9F586
:1028E0002D913C911197CD010296820F931F20915B
:1028F0002107309122072817390739F6309751F50B
:102900001092240710922307B0932207A093210767
:10291000BCCFD383C28340815181840F951FC817D8
:10292000D90761F44E5F5F4F88819981480F591F25
:10293000518340838A819B81938382832115310552
:1029400009F0B0CFF0932407E09323079ECFFD0159
:10295000DC01C0CF13821282D7CF4F925F926F9269
:102960007F928F929F92AF92BF92CF92DF92EF921F
:10297000FF920F931F93CF93DF938C01009799F4ED
:10298000CB01DF91CF911F910F91FF90EF90DF90DE
:10299000CF90BF90AF909F908F907F906F905F90FF
:1029A0004F900C948813FC01E60FF71F9C012250F6
:1029B0003109E217F30708F4AEC0D901CD91DC91DB
:1029C0001197C617D70720F1C530D10578F0CE0191
:1029D00004978617970750F0C61BD70B2297C19311
:1029E000D1936D937C93CF010E942414C801DF9191
:1029F000CF911F910F91FF90EF90DF90CF90BF90FC
:102A0000AF909F908F907F906F905F904F900895C0
:102A10005B01AC1ABD0A4C018C0E9D1EA0912307D0
:102A2000B0912407512C412CF12CE12C109731F559
:102A300080912107909122078815990509F05CC0C3
:102A40004616570608F058C0809103029091040280
:102A5000009741F48DB79EB740910702509108024C
:102A6000841B950BE817F90708F055C0F09322076F
:102A7000E0932107F90171836083B8CF8D919C9118
:102A8000119712966C90129713967C901397A81535
:102A9000B90559F56C0142E0C40ED11CCA14DB041F
:102AA00020F1AC014A195B09DA011296159780F002
:102AB0006282738251834083D9016D937C93E114C8
:102AC000F10471F0D7011396FC93EE9312978ECF19
:102AD00022968C0F9D1FF90191838083F301EFCF24
:102AE000F0932407E093230781CF4816590608F492
:102AF0002C017D01D3019ACFCB010E9488137C0168
:102B0000009749F0AE01B8010E948E15C8010E94DD
:102B1000241487016BCF10E000E068CFFB01DC01DB
:102B200002C001900D9241505040D8F70895FB012A
:102B3000DC0101900D920020E1F7089511E0C0E75B
:102B4000D1E000E006C0802FFE010E9445132196CF
:102B5000011DC137D10780E00807A9F7F894FFCF1E
:102B6000FF0100000025078000363738391B1D1A89
:102B70001C000000002402F7019007CD01F001DDE8
:102B800001CE0100000000B905F6043C0506066D03
:102B9000054B055F0500000000D307F60490078F82
:022BA00007002C
:00000001FF
